:4000000080673030303030307e3030307e3030307e3030307e3030307e3030307e3030307d07a57e7d08e07e7d05467e7d05477e7e3030307e3030307e3030307e30303016
:400040007e3030307e3030307e3030307e3030307e3030307e3030307e3030307e3030307e3030307e303030711062fa0062e38770ef50202850402850602862e33841fe08
:40008000fb50804e62e33855f80055f900711062e00270ef62e338627105627505627905627d0562d10750004e62d30762d00062d50062d40071c07c04e162d000500357d5
:4000c000da0828531a18750900284b511a800475090062e300082860d574a04b187509000828531a187509000828a01c53191875090008283f1a471affb0065dd57460d5d9
:40010000187a19bfeb8fc9187509000828531950003f1a471affb0085dd57460d550007a19bfef188faa18711070ef62e000711062e00043e78070ef62e2007c092b8fffda
:4001400050107f3030303030303030303030303030303030303030303030303030303030303030303030303030303030303030303030303030303030303030303030303030
:4001800030303030303030303030303030303030303030303030303030303030303030300d0a50536f4323000d0a556e6b6e6f776e20636f6d6d616e643a20000d0a436f87
:4001c0006d6d616e64206c696e652064656d6f000d0a6c65647320003f0070776d006c6564002a2a2a2a2a2a2a2a2a2a2a2a2a2a2a2a2a2a2a2a2a2a2a2a0d0a002a20501d
:40020000536f43204576616c204b697420435933323130202a0d0a000d0a2a2a2a2a2a2a2a2a2a2a2a2a2a2a2a2a2a2a2a2a2a2a2a2a0d0a00270025642632230021c82292
:400240000f2f002d002e002b0029002a006028660063056500e600e700d600b000b100b200b333b433b521b602b855b900ba10bb33bc33bd00be00c000c100c220c333c496
:4002800033c500c600c855c900ca30cb33cc33cd00ce006c006d006e006f00ff2429251626452039211922462c052dd12e40281d29012a446100690060006200673368332a
:4002c00063006600d100d300d000d200e1b1e200df19de00dd00e700ff002020202020202020203030303030202020202020202020202020202020202020904040404040c2
:40030000404040404040404040400c0c0c0c0c0c0c0c0c0c4040404040404009090909090901010101010101010101010101010101010101014040404040400a0a0a0a0a09
:400340000a0202020202020202020202020202020202020202404040402000000000000000000000000000000000000000000000000000000000000000000000000000002b
:40038000000000000000000000000000000000000000000000000000000000000000000000000000000000000000000000000000000000000000000000000000000000003d
:4003c00000000000000000000000000000000000000000000000000000000d9670ef620000711062006162019e70ef62039c620263711062020062030070ef6201006204bb
:4004000000711062040f6205f070ef6207f0620600711062060062070070ef62050062080071106208006209ff70ef620bff620a007110620a00620b0070ef620900620caf
:40044000007110620c00620d0070ef620f00620e007110620e00620f0070ef620d00621000711062100062110070ef621300621200711062120062130070ef6211006214dc
:4004800000711062140062150070ef621700621600711062160062170070ef621500621800711062180062190070ef621b00621a007110621a00621b0070ef621900621c1c
:4004c000007110621c00621d0070ef621f00621e007110621e00621f0070ef621d0070ef7f5502007c04eb7c03dc7f1070ef500067500257357c05065001675002579c7c40
:40050000050670ef207f380210084f56fc00d00456fc01182070ef62e30010082839ffa01f4f48fc01a003711054fd18207509001008284f59fd610018207509008fd7382c
:40054000fc703f71c07f7e08105dd30858015d2f082108b00418805e1821e0a0122c00492e002120a050412ffe432f0180485d2e470001b041390db0142e000162d30070a8
:400580003f7180560300703f7100802a3920c02662d3003c010fc011703f7180560300703f71002e0010800e703f71805403703f7100755a011860d320187e43e10443e13e
:4005c000087f41e1fb41e1f77f71102101a00743281070ef7f4128ef70ef7f2901602b602f912a7f412bfe412ffe7f60297f5d2b7f5d2e7f5d2f7f210171103901a0064129
:4006000028ef800443281070ef7f082101a00643e108800441e1f7182102a00643e104800441e1fb7f303132333435363738394142434445460867676767210fffe7900f09
:4006400018210fffe090087f4b9fea5b9fe77f492b10affc60297f492f08affc5d2e7f5d2f082108b00418800b5d2e4b1821a0b0034b7f50007f5d2f21e8082108b00718f8
:4006800029014b80071821e04b5d2e7f70bf60d35200a0069fb9758ff8703f71c07f70bf62d3074f52fba01a7bfb52fc59fd60d35200492b10affc60294f62d30777fd8f1d
:4006c000e4703f71c07f4f3dfa00b0063dfb00a01d1052fc59fd28492b10affc60292007fd010ffc0017fb011ffa008fdb703f71c07f081028a00b9f56201875dff5748f69
:40070000f238fe7f500d9f47500a9f437f62d00055030062d00055010026000062d000551b007f62d000510021017f62d000510021f026000f7f62d00051017f70bf62d0eb
:40074000005003021b5c62d3005200b0041080333920b01175761b52003c1b0fbff310560000801f1075761b3c1b0faff35200a0123920bff1560000761b3c1b0fb004559f
:400780001b0f20103d0000b00a2057005b703f71c07f205000703f71c07f62d0005003021b5c50007f7e43e1017f41e1fe7f4323017f4123fe7f60217f60227f5d227f4f45
:4007c0005d22084123fe71105d210862210070ef5d205d22085200602271105201602170ef4323011838fe703f71c07f50018003500062d0002900a0062e0208800426027e
:40080000f751026004703f71c07f62d00036020851026004703f71c07f62d00051022108a0035001703f71c07f50018003500062d0002900a0062e020480042602fb5102cf
:400840006004703f71c07f62d00036020451026004703f71c07f62d00051022104a0035001703f71c07f50018003500062d0002900a0062e020280042602fd51026004700d
:400880003f71c07f62d00036020251026004703f71c07f62d00051022102a0035001703f71c07f50018003500062d0002900a0062e020180042602fe51026004703f71c035
:4008c0007f62d00036020151026004703f71c07f62d00051022101a0035001703f71c07f7e43e1027f41e1fd7f4327017f4127fe7f60257f60267f5d267f4f5d26085d2705
:40090000084127fe71105d250862250070ef5d245d26085200602671105202602570ef520160271838fd703f71c07f104f380b71011050007c05db50017c060a50020850de
:40094000185c187c06f250010850fd5c187c06f250010850e25c187c06f250010850a05c187c06f27c070d7c08a77c086a7c082d7c07f07c08e97c07ae20825b107c072327
:400980002062d0003900a24f107c073c62d000531a5a192051195403511a540256040052020852030850010850de087c0bdd38fc62d0003c1a00b0093c1900b00456040159
:4009c00052020852030850010850da087c0bdd38fc62d0003c1a00b0093c1900b00456040252020852030850010850d8087c0bdd38fc62d0003c1a00b0093c1900b00456fb
:400a00000403107c073c62d000531a5a192051195401511a54003d0000b0063d0100a0195200085201087c0c1338fe62d00051195406511a540580075606ff5605ff107c3e
:400a4000073c62d000531a5a192051195401511a54003d0000b0063d0100a0195200085201087c0c1338fe62d00051195408511a540780075608ff5607ff5204540a560902
:400a8000003d0900b0063d0a01a0173d0900b0063d0a02a0e03d0900b0063d0a03a103810f3d0700b0063d0800a00d3d0700b0063d0801a00381113d0500b0063d0601a0bf
:400ac000213d0500b0063d0602a0233d0500b0063d0603a0253d0500b0063d0604a027802f62d0005208107c08a920802362d0005208107c086c20801762d0005208107c36
:400b0000082f20800b62d0005208107c07f2201050010850d05c187c06f27c08d02062d000531a061a3010511a7c064f50207c064f7c08932062d000531a061a3010511aa0
:400b40007c064f50207c064f7c08562062d000531a061a3010511a7c064f50207c064f7c08192062d000531a061a3010511a7c064f2080545206110a520531801980c01419
:400b8000501413065205318062d000531450801a14d003803362d0005206107c07b92080271050010850bc5c187c06f22080191050010850a85c187c06f2201052020852b9
:400bc000035c187c068c20107c070d50010850a05c187c06f2208da538f5208fff62d000104f52f960d48003104f52fa53181052fb59fc2853192077fc0ffb003e18141943
:400c0000b0053900bfe9551a00471980a004551aff207f104f3804800677fc0ffb0062d00052fc531952fb60d43e1953195000085119087c0d7538fe62d0003c1a00bfda31
:400c40003c1900bfd556030056020062d00052fc531952fb60d43e19392db00e56030156020077fc0ffb00801762d00052fc531952fb60d43e19392bb00677fc0ffb00567b
:400c80000100560000807b62d00052fc531952fb531a5119010154fc511a090054fb520153175200531855150a5516005514005513003c1600b0063c1500a01a70fb6e1691
:400cc0006e15d00c62d0005117041451180c1365176b188fde5f17145f181362d000511a60d43e195319551a0051170219531951180a1a531a511911305401511a19005417
:400d00000062d00052fc531952fb60d43e1953195000085119087c0d5438fe62d0003c1a00bf653c1900bf603d0200b0063d0300a01462d00052017311ff5319520073194b
:400d4000ff531a800c62d000520153195200531a38fc207f104f62d00052fc01da531952fb090210581928205319551a00261904261a00207f104f62d00052fc01da53198e
:400d800052fb090210581928205319551a00261910261a00207fff00303030303030303030303030303030303030303030303030303030303030303030303030303030308a
:400dc00030303030303030303030303030303030303030303030303030303030303030303030303030303030303030303030303030303030303030303030303030303030f3
:400e000030303030303030303030303030303030303030303030303030303030303030303030303030303030303030303030303030303030303030303030303030303030b2
:400e40003030303030303030303030303030303030303030303030303030303030303030303030303030303030303030303030303030303030303030303030303030303072
:400e80003030303030303030303030303030303030303030303030303030303030303030303030303030303030303030303030303030303030303030303030303030303032
:020000040010ea
:020000040020da
:0200000039e1e4
:00000001ff
